:040000000128FB2FA9
:100762001630210097000800320091019201930196
:100772009401950196010800803021009E009F019E
:100782009B019C0101309D000800623032009900FB
:100792009B019D0103309F009E0108008331B52318
:1007A20083318331DF2383318331C6238331833124
:1007B200B12383318331BD238331080022008C01B0
:1007C2008E01173021008C001F308E000F30230065
:1007D2008E0017308C0024008C018E0125008C01C4
:1007E2008E01373026008C003F308E003F302700CC
:1007F2008C003F308E0008008331CF238331843157
:100802009A24833104302000C800CF30C700013061
:10081200890B092CC70B092CC80B092C00322200AA
:100822000E0E2000C700470C0139C7000130C70671
:10083200C70EC70D22000E0820004706DF39470603
:1008420022008E00032C012803102000360D370DE4
:10085200B8003808BE003E08031D302C312C3A2C5B
:100862000030B7000030B6000030B5000030B400F0
:10087200992C3408B8003508B9003608BA00370890
:10088200BB001F30BB36BA0CB90CB80C890B432C19
:100892003808BC003C08BD00B617FF30B405FF3075
:1008A200B505FF30B6050030B7059630BE02BE1F53
:1008B2005B2C5C2C742C3E08803A973E0318622C09
:1008C200632C642C312C0130B736B60CB50CB40C49
:1008D200890B652C0130B8003808BE07031D722C45
:1008E200732C642C892C20303E02031C792C7A2C28
:1008F200842C312C0130B435B50DB60DB70D890BF2
:100902007C2C0130BE023E08031D882C892C7B2CD6
:100912003D0803198D2C8E2C992CB409B509B60902
:10092200B709B40A0319B50A0319B60A0319B70AB3
:10093200080020000E0C0139BF00C001C101C20134
:100942004208F3004108F2004008F1003F08F000BD
:10095200013085311725843173082000A700720801
:10096200A6007108A5007008A4003F30A300003063
:10097200A2000030A1000030A0008531C3258431DF
:1009820020002308B7002208B6002108B50020087D
:10099200B40084312524843120003508C400340891
:1009A200C3000E0C890C0139BF00C001C101C20194
:1009B2004208F3004108F2004008F1003F08F0004D
:1009C200013085311725843173082000A700720891
:1009D200A6007108A5007008A4003F30A3000030F3
:1009E200A2000030A1000030A0008531C32584316F
:1009F20020002308B7002208B6002108B50020080D
:100A0200B40084312524843120003508C60034081E
:100A1200C5004308BF000230BF35FF3E031D0D2D48
:100A22003F354504C0004008CB000800F8007808B4
:100A320003191C2D1D2D312DF31F202D212D312D9C
:100A42007009FA007109FB007209FC007309FD00CC
:100A5200FA0A0319FB0A0319FC0A0319FD0A392DC4
:100A62007308FD007208FC007108FB007008FA00B0
:100A72007308720471047004031D402D412D4A2D28
:100A82000030F3000030F2000030F1000030F000DE
:100A9200C22D9630F4007408F9005A2D0130F4008A
:100AA2007408F9070130FD36FC0CFB0CFA0C890BBB
:100AB200542DFE307D05031D5F2D602D4F2D742DAD
:100AC2000130F4007408F9070130FA070030FB3DE9
:100AD2000030FC3D0030FD3D0130FD36FC0CFB0CCE
:100AE200FA0C890B6E2DFF307D05031D792D7A2DB1
:100AF200612D842D0130F9020130FA35FB0DFC0D18
:100B0200FD0D890B7E2DFC1B872D882D8E2D02302D
:100B1200790203188D2D8E2D7B2D7918912D922D12
:100B22009A2DFF30FA05FF30FB057F30FC05FF30C0
:100B3200FD050310F90C7908F400F501F601F7013F
:100B42001830F435F50DF60DF70D890BA22D74084A
:100B5200FA047508FB047608FC047708FD0478089B
:100B62000319B42DB52DBA2DF31FB82DB92DBA2DF9
:100B7200FD177D08F3007C08F2007B08F1007A087B
:100B8200F0000800200023088039A8002808B000DF
:100B92002335A8002808B200A21FD02DD12DD22DB6
:100BA200321432080319D62DD72DE72D320A031D30
:100BB200DB2DDC2DE42D0030A3000030A20000303C
:100BC200A1000030A000A217A301EF2D0030A30066
:100BD2000030A2000030A1000030A00027088039B8
:100BE200A8002808B100310830060319F92DFA2DA2
:100BF200FB2D30172735A8002808B100A61F022EAA
:100C0200032E042E311431080319082E092E192E31
:100C1200310A031D0D2E0E2E162E0030A7000030B5
:100C2200A6000030A5000030A400A617A701212EBF
:100C32000030A7000030A6000030A5000030A4005C
:100C4200320831020318262E272E6B2E301F2A2E31
:100C52002B2E2F2E8030A8002808B0063208A800BC
:100C62002808B3003108A8002808B2003308A800F9
:100C72002808B1002008A8002808B3002408A8000A
:100C82002808A0003308A8002808A4002108A8000A
:100C92002808B3002508A8002808A1003308A800E6
:100CA2002808A5002208A8002808B3002608A800E2
:100CB2002808A2003308A8002808A6002308A800D4
:100CC2002808B3002708A8002808A3003308A800B2
:100CD2002808A700B3013108A800A9012908AB0020
:100CE20032082802AA00031CAB032B08803AAC008E
:100CF20080302C02031D7F2E1A302A02031C822E02
:100D0200832EBB2E20002308220421042004031D6D
:100D12008B2E8D2E01308E2E0030A8002808B300B5
:100D22000030A3000030A2000030A1000030A0007B
:100D32003108A8002808B200C22E331CA12EA22E10
:100D4200A82E33360138A8002808B300AA2E0310B3
:100D5200B30C201CAD2EAE2EAF2EB3170130A8005F
:100D6200A337A20CA10CA00CA80BB12E0130A80035
:100D72002808B207200031083202031CC12EC22EFD
:100D82009E2E301BC52EC62EFE2E3208031DCA2EE5
:100D9200CB2ED42E0030A3000030A2000030A100E0
:100DA2000030A000FA2F2408A0072508A13D26083C
:100DB200A23D2708A33D231CDF2EE02E8A2F331CE1
:100DC200E32EE42EEA2E33360138A8002808B300B9
:100DD200EC2E0310B30C201CEF2EF02EF12EB317C5
:100DE2000130A800A337A20CA10CA00CA80BF32E73
:100DF2000130A8002808B2078A2F2308803AA800E9
:100E02002708803A2802031D102F26082202031DFC
:100E1200102F25082102031D102F24082002031879
:100E2200132F142F4C2FFF30A800FF30A900FF30E2
:100E3200AA00FF30AB0020082402AC002108253BA9
:100E4200AD002208263BAE002308273BAF002C084A
:100E5200A8072D08A93D2E08AA3D2F08AB3D2B0857
:100E6200A3002A08A2002908A1002808A0008030B7
:100E7200A8002808B006B309B30A3308031D422F9D
:100E8200432F542F0130A0070030A13D0030A23D76
:100E92000030A33D542F2408A0022508A13B2608B8
:100EA200A23B2708A33B2308220421042004031D9C
:100EB2005B2F5C2F862F3308031D602F612F862F37
:100EC2000030A3000030A2000030A1000030A000DA
:100ED200FA2F0130A035A10DA20DA30D890B6B2FA6
:100EE200B31F742F752F762F2014331C792F7A2F6E
:100EF2007D2F0314B30D7F2F0310B30D3208031996
:100F0200832F842F862F0130B202A21F892F8A2FAE
:100F12006A2FB101B31F8E2F8F2F9D2F33087F3978
:100F22000319942F952F982FB101B10A9D2F201CE0
:100F32009B2F9C2F9D2F952F31080319A12FA22F94
:100F4200CF2F0130A0070030A13D0030A23D00307C
:100F5200A33D231CAD2FAE2FCF2F2008A8002108C0
:100F6200A9002208AA002308AB000130AC00AB376D
:100F7200AA0CA90CA80CAC0BB82F2B08A3002A08AA
:100F8200A2002908A1002808A000320A0319CA2FCA
:100F9200CB2FCF2F0130A8002808B207320A03193D
:100FA200D32FD42FD92F3208031DD82FD92FE72FB3
:100FB2000030A3000030A2000030A1000030A000E9
:100FC2003208031DE52FE62FE72FB001321CEA2F6E
:100FD200EB2FED2FA217F12F7F30A8002808A205D2
:100FE2003236A8002808A300B01FF82FF92FFA2FD5
:0E0FF200A31708002000C901CA012000FD2B32
:020000040001F9
:08000000FF3FFF3FFF3FFF3F00
:08000E00EC3FF33FFF3FFF3F11
:00000001FF
