:040000000128FC2FA8
:100F2400163021009700080021009E019F019B01BB
:100F34009C0101309D00080032009101920193014F
:100F440094019501960108006230320099009B01DA
:100F54009D0103309F009E01080087319E27873141
:100F64008731BF2787318731A62787318731922779
:100F74008731873196278731080022008C018E0142
:100F8400173021008C001F308E000F3023008E009C
:100F940017308C0024008C018E0125008C018E01F9
:100FA400373026008C003F308E003F3027008C0005
:100FB4003F308E0008008731AF2787310430F300BB
:100FC400CF30F2000230890BE52FF20BE52FF30B43
:100FD400E52F22000E0EF200720C0139F2000130EE
:100FE400F206F20EF20D0E087206DF3972068E005A
:0C0FF400E02F0128F001F1012000DD2FAA
:020000040001F9
:08000000FF3FFF3FFF3FFF3F00
:08000E00EC3FF33FFF3FFF3F11
:00000001FF
