:040000000128FB2FA9
:100DF60016302100970008003200910192019301FC
:100E06009401950196010800803021009E009F0103
:100E16009B019C0101309D00080062303200990060
:100E26009B019D0103309F009E0108008631FF262D
:100E360087318731412787318731102787318631BE
:100E4600FB2687318731072787310800F3007308AF
:100E5600F200F20DF20D21001D087206033972062A
:100E66009D001D14000021009D149D183B2F3C2F52
:100E7600382F1C08F1001B08F000080022008C0126
:100E86008E01173021008C001F308E000F3023009A
:100E96008E0017308C0024008C018E0125008C01F9
:100EA6008E01373026008C003F308E003F30270001
:100EB6008C003F308E000800873119278731873133
:100EC6000727873187318A27873104302000A5001C
:100ED600CF30A4000130890B6E2FA40B6E2FA50B0B
:100EE6006E2F003222000E0E2000A400240C0139C1
:100EF600A4000130A406A40EA40D22000E082000B2
:100F06002406DF39240622008E00682F0128C83007
:100F1600F4000030F5001130873129278731710838
:100F2600F7007008F6008731BF2787317508200063
:100F3600A1007408A000C830F4000030F50012309B
:100F46008731292787317108F7007008F600873145
:100F5600BF27873175082000A3007408A200200867
:100F6600FC000230FC35FF3E031DB52F7C35220404
:100F7600FD007D08A8000800F901FA01740875044F
:100F86000319C62FC72FF62FFB01FB0AD32F0130FB
:100F9600F435F50D890BCB2F0130F8007808FB07E7
:100FA600F51FD62FD72FCA2F0130F935FA0D890B29
:100FB600D82F75087702031DE22F74087602031CEA
:100FC600E52FE62FEB2F7408F6027508F73B791428
:100FD6000130F536F40C890BEC2F0130FB02031DB2
:100FE600F52FF62FD72F7A08F5007908F4000800B8
:0A0FF6002000A601A70120005F2FD4
:020000040001F9
:08000000FF3FFF3FFF3FFF3F00
:08000E00EC3FF33FFF3FFF3F11
:00000001FF
