:040000000128FB2FA9
:10019400163021009700080032009101920193016A
:1001A4009401950196010800803021009E009F0172
:1001B4009B019C0101309D000800623032009900CF
:1001C4009B019D0103309F009E0108008031CE20D9
:1001D400803181313C2180318031DF208031803198
:1001E400CA2080318031D62080310800133081311B
:1001F4000921803171082000DC007008DB005C08F4
:10020400DA005B08D9008131B92180310800F3009C
:100214007308F200F20DF20D21001D087206033975
:1002240072069D001D14000021009D149D181B29B9
:100234001C2918291C08F1001B08F0000800803153
:10024400E82081318031D62081318131FB21813117
:1002540004302000DE00CF30DD000130890B30296E
:10026400DD0B3029DE0B302900328031F82081315A
:100274002A29012822008C018E01173021008C00CC
:100284001F308E000F3023008E0017308C002400A6
:100294008C018E0125008C018E01373026008C00E4
:1002A4003F308E003F3027008C003F308E00080026
:1002B400F800F401F5017008F200F3017208F60089
:1002C4007308F700781C672968296C297608F407F5
:1002D4007708F53D0130F635F70D890B6D290310CC
:1002E400F80C7808031D7729782964297508F1002A
:1002F4007408F0000800F901FA0174087504031980
:1003040084298529B429FB01FB0A91290130F4359C
:10031400F50D890B89290130F8007808FB07F51FD2
:100324009429952988290130F935FA0D890B9629E4
:1003340075087702031DA02974087602031CA329FB
:10034400A429A9297408F6027508F73B7914013029
:10035400F536F40C890BAA290130FB02031DB329DD
:10036400B42995297A08F5007908F40008002000DA
:100374005908F0005A08F100F201F301003082310B
:10038400C022813173082000A7007208A6007108FA
:10039400A5007008A400BD30A300CA30A200F43048
:1003A400A100F130A0008531A4258131200023086B
:1003B400C1002208C0002108BF002008BE0042304E
:1003C400BD009930BC009030BB006230BA0083316C
:1003D4006C23813120003D08D1003C08D0003B084B
:1003E400CF003A08CE0082314B22813120004E08E2
:1003F4000800C830F4000030F500103081310921C4
:1004040081317108F7007008F60081317D21813156
:1004140074082000A0002008A300C830F4000030B5
:10042400F50011308131092181317108F70070081C
:10043400F60081317D21813174082000A00020085C
:10044400A400C830F4000030F500123081310921D5
:1004540081317108F7007008F60081317D21813106
:1004640074082000A0002008A5002408A000033080
:10047400A035890B3A2A2308A1000530A135FF3E97
:10048400031D402A213520042504A2002208E1008E
:10049400080003102000500D510DD2005208D8005E
:1004A4005808031D562A572A602A0030D10000300C
:1004B400D0000030CF000030CE00BF2A4E08D2005A
:1004C4004F08D3005008D4005108D5001F30D5364A
:1004D400D40CD30CD20C890B692A5208D6005608C6
:1004E400D700D017FF30CE05FF30CF05FF30D00541
:1004F4000030D1059630D802D81F812A822A9A2A40
:100504005808803A973E0318882A892A8A2A572A43
:100514000130D136D00CCF0CCE0C890B8B2A013094
:10052400D2005208D807031D982A992A8A2AAF2A8A
:1005340020305802031C9F2AA02AAA2A572A0130D5
:10054400CE35CF0DD00DD10D890BA22A0130D802A2
:100554005808031DAE2AAF2AA12A57080319B32A43
:10056400B42ABF2ACE09CF09D009D109CE0A03196A
:10057400CF0A0319D00A0319D10A0800F800780831
:100584000319C52AC62ADA2AF31FC92ACA2ADA2A6B
:100594007009FA007109FB007209FC007309FD007F
:1005A400FA0A0319FB0A0319FC0A0319FD0AE22AD1
:1005B4007308FD007208FC007108FB007008FA0063
:1005C4007308720471047004031DE92AEA2AF32AE9
:1005D4000030F3000030F2000030F1000030F00091
:1005E4006B2B9630F4007408F900032B0130F400EF
:1005F4007408F9070130FD36FC0CFB0CFA0C890B6E
:10060400FD2AFE307D05031D082B092BF82A1D2B1E
:100614000130F4007408F9070130FA070030FB3D9B
:100624000030FC3D0030FD3D0130FD36FC0CFB0C80
:10063400FA0C890B172BFF307D05031D222B232B6E
:100644000A2B2D2B0130F9020130FA35FB0DFC0D7C
:10065400FD0D890B272BFC1B302B312B372B023044
:1006640079020318362B372B242B79183A2B3B2B82
:10067400432BFF30FA05FF30FB057F30FC05FF30CC
:10068400FD050310F90C7908F400F501F601F701F2
:100694001830F435F50DF60DF70D890B4B2B740856
:1006A400FA047508FB047608FC047708FD0478084E
:1006B40003195D2B5E2B632BF31F612B622B632BC2
:1006C400FD177D08F3007C08F2007B08F1007A082E
:1006D400F000080020003D088039C2004208CA002A
:1006E4003D35C2004208CC00BC1F792B7A2B7B2BF2
:1006F4004C144C0803197F2B802B902B4C0A031DA0
:10070400842B852B8D2B0030BD000030BC000030C5
:10071400BB000030BA00BC17BD01982B0030BD00EF
:100724000030BC000030BB000030BA004108803902
:10073400C2004208CB004B084A060319A22BA32B84
:10074400A42B4A174135C2004208CB00C01FAB2B73
:10075400AC2BAD2B4B144B080319B12BB22BC22B72
:100764004B0A031DB62BB72BBF2B0030C100003042
:10077400C0000030BF000030BE00C017C101CA2B4A
:100784000030C1000030C0000030BF000030BE00A7
:100794004C084B020318CF2BD02B142C4A1FD32BFD
:1007A400D42BD82B8030C2004208CA064C08C200A1
:1007B4004208CD004B08C2004208CC004D08C200DC
:1007C4004208CB003A08C2004208CD003E08C200ED
:1007D4004208BA004D08C2004208BE003B08C200ED
:1007E4004208CD003F08C2004208BB004D08C200C9
:1007F4004208BF003C08C2004208CD004008C200C5
:100804004208BC004D08C2004208C0003D08C200B6
:100814004208CD004108C2004208BD004D08C20094
:100824004208C100CD014B08C200C3014308C50002
:100834004C084202C400031CC5034508803AC600A4
:1008440080304602031D282C1A304402031C2B2C32
:100854002C2C642C20003D083C043B043A04031D6A
:10086400342C362C0130372C0030C2004208CD0025
:100874000030BD000030BC000030BB000030BA00C6
:100884004B08C2004208CC006B2C4D1C4A2C4B2C4C
:10089400512C4D360138C2004208CD00532C0310B0
:1008A400CD0C3A1C562C572C582CCD170130C200B5
:1008B400BD37BC0CBB0CBA0CC20B5A2C0130C200A5
:1008C4004208CC0720004B084C02031C6A2C6B2CFA
:1008D400472C4A1B6E2C6F2CA72C4C08031D732C21
:1008E400742C7D2C0030BD000030BC000030BB00F7
:1008F4000030BA00A32D3E08BA073F08BB3D4008AC
:10090400BC3D4108BD3D3D1C882C892C332D4D1C1C
:100914008C2C8D2C932C4D360138C2004208CD000E
:10092400952C0310CD0C3A1C982C992C9A2CCD178D
:100934000130C200BD37BC0CBB0CBA0CC20B9C2CE2
:100944000130C2004208CC07332D3D08803AC20072
:100954004108803A4202031DB92C40083C02031DA1
:10096400B92C3F083B02031DB92C3E083A02031878
:10097400BC2CBD2CF52CFF30C200FF30C300FF306F
:10098400C400FF30C5003A083E02C6003B083F3BA6
:10099400C7003C08403BC8003D08413BC90046082D
:1009A400C2074708C33D4808C43D4908C53D45083A
:1009B400BD004408BC004308BB004208BA008030B4
:1009C400C2004208CA06CD09CD0A4D08031DEB2C0E
:1009D400EC2CFD2C0130BA070030BB3D0030BC3D8F
:1009E4000030BD3DFD2C3E08BA023F08BB3B400829
:1009F400BC3B4108BD3B3D083C043B043A04031D99
:100A0400042D052D2F2D4D08031D092D0A2D2F2DE5
:100A14000030BD000030BC000030BB000030BA0024
:100A2400A32D0130BA35BB0DBC0DBD0D890B142DA2
:100A3400CD1F1D2D1E2D1F2D3A144D1C222D232D8F
:100A4400262D0314CD0D282D0310CD0D4C080319AC
:100A54002C2D2D2D2F2D0130CC02BC1F322D332DEA
:100A6400132DCB01CD1F372D382D462D4D087F3941
:100A740003193D2D3E2D412DCB01CB0A462D3A1CA9
:100A8400442D452D462D3E2D4B0803194A2D4B2D43
:100A9400782D0130BA070030BB3D0030BC3D00303A
:100AA400BD3D3D1C562D572D782D3A08C2003B08FC
:100AB400C3003C08C4003D08C5000130C600C5376A
:100AC400C40CC30CC20CC60B612D4508BD00440800
:100AD400BC004308BB004208BA004C0A0319732D3A
:100AE400742D782D0130C2004208CC074C0A03193A
:100AF4007C2D7D2D822D4C08031D812D822D902D62
:100B04000030BD000030BC000030BB000030BA0033
:100B14004C08031D8E2D8F2D902DCA014C1C932D36
:100B2400942D962DBC179A2D7F30C2004208BC0527
:100B34004C36C2004208BD00CA1FA12DA22DA32D10
:100B4400BD170800200023088039A8002808AD003C
:100B54002335A8002808B300A21FB12DB22DB32D50
:100B6400331433080319B72DB82DC72D330A031DC9
:100B7400BC2DBD2DC52D0030A3000030A2000030D7
:100B8400A1000030A000A217CF2D0030A300003038
:100B9400A2000030A1000030A00027088039A8007E
:100BA4002808AD062735A8002808B200A61FDB2DAB
:100BB400DC2DDD2D321432080319E12DE22DF12D47
:100BC400320A031DE62DE72DEF2D0030A70000307B
:100BD400A6000030A5000030A400A617F92D0030AF
:100BE400A7000030A6000030A5000030A4003208A1
:100BF4000319FD2DFE2D032E3308031D022E032E93
:100C04000C2E0030A3000030A2000030A100003000
:100C1400A000FA2F2008A8002808F0002608813137
:100C24005A21853171082000B9007008B8003808CD
:100C3400A800A901AA01AB012B08B1002A08B00041
:100C44002908AF002808AE003908A800A901AA01A4
:100C5400AB012B08B7002A08B6002908B5002808FC
:100C6400B4002108A8002808F000250881315A2181
:100C7400853171082000B9007008B8003808A80050
:100C8400A901AA01AB012808AE072908AF3D2A082B
:100C9400B03D2B08B13D3908A800A901AA01AB0158
:100CA4002808B4072908B53D2A08B63D2B08B73DE6
:100CB4002208A8002808F000240881315A2185312F
:100CC40071082000B9007008B8003808A800A9010C
:100CD400AA01AB012808AE072908AF3D2A08B03D98
:100CE4002B08B13D3908A800A901AA01AB012808C5
:100CF400B4072908B53D2A08B63D2B08B73D08308E
:100D0400AE35AF0DB00DB10D890B822E2108A800B0
:100D14002808F000240881315A2185317108200007
:100D2400B9007008B8003808AE073908AF3D003084
:100D3400B03DB13D2008A8002808F0002508813105
:100D44005A21853171082000B9007008B8003808AC
:100D5400AE073908AF3D0030B03DB13D0830AE3587
:100D6400AF0DB00DB10D890BB12E2008A8002808D5
:100D7400F000240881315A21853171082000B9001E
:100D84007008B8003808AE073908AF3D0030B03DF0
:100D9400B13D2108A8002808F000260881315A2115
:100DA400853171082000B9007008B8003808B4070C
:100DB4003908B53D0030B63DB73D2208A8002808E3
:100DC400F000250881315A21853171082000B900CD
:100DD4007008B8003808B4073908B53D0030B63D8E
:100DE400B73D2208A8002808F000260881315A21BE
:100DF400853171082000B9007008B8003808A800CF
:100E04003908A900AA01AB010830A835A90DAA0D1B
:100E1400AB0D890B072F2808B4072908B53D2A080C
:100E2400B63D2B08B73D2E08A8002F08A9003008AE
:100E3400AA003108AB001830AB36AA0CA90CA80CD8
:100E4400890B1E2F2808B4072908B53D2A08B63D8A
:100E54002B08B73D0830AE35AF0DB00DB10D890B81
:100E64002D2F33083207A800A901A90D2808823EB6
:100E7400B800FF30293DB900562F0130B435B50D07
:100E8400B60DB70D890B402FB11F492F4A2F4B2F99
:100E940034140130AE35AF0DB00DB10D890B4C2FAC
:100EA400FF30B807FF30B93DB61F592F5A2F3F2FD7
:100EB400B201B11F5E2F5F2F7B2FFF302E05A800DC
:100EC400FF302F05A900FF303005AA007F3031051F
:100ED400AB002B082A04290428040319722F732F4A
:100EE400762FB201B20A7B2F341C792F7A2F7B2FF5
:100EF400732F320803197F2F802FA82F0130B407D6
:100F04000030B53D0030B63D0030B73D371C8B2F67
:100F14008C2FA82F3408A8003508A9003608AA0089
:100F24003708AB000130AC00AB37AA0CA90CA80CF5
:100F3400AC0B962F2B08B7002A08B6002908B50079
:100F44002808B4000130B8070030B93D3908803AA8
:100F5400A80080302802031DB12FFF303802031C83
:100F6400B42FB52FBF2F7F302000B7008030B600DC
:100F74000030B5000030B400EE2F20003908803A6C
:100F8400A80080302802031DC92F0130380203183D
:100F9400CC2FCD2FD82F00302000B7000030B60062
:100FA4000030B5000030B400AD01EE2F2000380849
:100FB400A8002808B300FF30B405FF30B5057F3022
:100FC400B6050030B705331CE82FE92FEA2FB61712
:100FD4003336A8002808B7002D08A8002808B7044D
:100FE4003708A3003608A2003508A1003408A00081
:0C0FF40008002000DF01E001200021299E
:020000040001F9
:08000000FF3FFF3FFF3FFF3F00
:08000E00EC3FF33FFF3FFF3F11
:00000001FF
