:040000000128FB2FA9
:100378001630210097000800C6211522D721BC217C
:10038800CE21080032009101920193019401950158
:1003980096010800803021009E009F019B019C016E
:1003A80001309D0008006230320099009B019D01D8
:1003B80003309F009E0108001330FF2171082000C0
:1003C800DC007008DB005C08DA005B08D9008622D4
:1003D8000800C021CE21C02204302000DE00CF302A
:1003E800DD000130890BF629DD0BF629DE0BF62935
:1003F8000032E021F029F3007308F200F20DF20D4B
:1004080021001D087206033972069D001D140000A4
:1004180021009D149D180E2A1C08F1001B08F000ED
:10042800080022008C018E01173021008C001F303B
:100438008E000F3023008E0017308C0024008C01B2
:100448008E0125008C018E01373026008C003F304C
:100458008E003F3027008C003F308E000800F800E7
:10046800F401F5017008F200F3017208F600730850
:10047800F700781C432A7608F4077708F53D013021
:10048800F635F70D890B442A0310F80C7808031D7C
:100498003D2A7508F1007408F0000800F901FA0116
:1004A800740875040319812AFB01FB0AF51B662AE7
:1004B8000130F435F50D890B5D2A0130F800780814
:1004C800FB075A2A0130F935FA0D890B672A750896
:1004D8007702031D712A74087602031C782A7408AF
:1004E800F6027508F73B79140130F536F40C890BE0
:1004F800792A0130FB02031D662A7A08F50079087B
:10050800F400080020005908F0005A08F100F20130
:10051800F30100306A2373082000A7007208A600C0
:100528007108A5007008A400BD30A300CA30A2005D
:10053800F430A100F130A000E12520002308C1001B
:100548002208C0002108BF002008BE004230BD00BC
:100558009930BC009030BB006230BA00FF23200005
:100568003D08D1003C08D0003B08CF003A08CE0037
:10057800042320004E080800C830F4000030F500BD
:100588001030FF217108F7007008F6005222740835
:100598002000A0002008A300C830F4000030F500B7
:1005A8001130FF217108F7007008F6005222740814
:1005B8002000A0002008A400C830F4000030F50096
:1005C8001230FF217108F7007008F60052227408F3
:1005D8002000A0002008A5002408A0000330A035B2
:1005E800890BF32A2308A1000530A135FF3E031D1E
:1005F800F92A213520042504A2002208E100080078
:1006080003102000500D510DD2005208D800580890
:10061800031D172B0030D1000030D0000030CF0070
:100628000030CE0008004E08D2004F08D300500812
:10063800D4005108D5001F30D536D40CD30CD20CB9
:10064800890B202B5208D6005608D700D017FF3048
:10065800CE05FF30CF05FF30D0050030D1059630EC
:10066800D802D81F4A2B5808803A973E031C0E2BF5
:100678000130D136D00CCF0CCE0C890B3D2B01307C
:10068800D2005208D80703195B2B3C2B20305802A4
:1006980003180E2B580803195B2B0130CE35CF0DEC
:1006A800D00DD10D890B522B0130D8024E2B570893
:1006B80003190800CE09CF09D009D109CE0A0319B8
:1006C800CF0A0319D00A0319D10A0800F8007808DC
:1006D800031DF31F7F2B7009FA007109FB007209D3
:1006E800FC007309FD00FA0A0319FB0A0319FC0A46
:1006F8000319FD0A872B7308FD007208FC007108B6
:10070800FB007008FA007308720471047004031D7A
:10071800962B0030F3000030F2000030F10000307A
:10072800F00008009630F4007408F900FE307D05EA
:100738000319BD2B0130F4007408F9070130FD36A8
:10074800FC0CFB0CFA0C890BA32B9A2B0130F40040
:100758007408F9070130FA070030FB3D0030FC3D12
:100768000030FD3D0130FD36FC0CFB0CFA0C890B0A
:10077800B72BFF307D050319CF2BAA2B0230790246
:10078800031CD12B0130F9020130FA35FB0DFC0DA9
:10079800FD0D890BC92BFC1FC22B7918DB2BFF30F1
:1007A800FA05FF30FB057F30FC05FF30FD0503101F
:1007B800F90C7908F400F501F601F7011830F43561
:1007C800F50DF60DF70D890BE32B7408FA0475087F
:1007D800FB047608FC047708FD047808031DF31F62
:1007E800F62BFD177D08F3007C08F2007B08F1006A
:1007F8007A08F000080020003D088039C20042084D
:10080800CA003D35C2004208CC00BC1B4C144C0841
:1008180003191C2C4C0A031D192C0030BD00003094
:10082800BC000030BB000030BA00BC17BD01242C4E
:100838000030BD000030BC000030BB000030BA0002
:1008480041088039C2004208CB004B084A06031D04
:100858004A174135C2004208CB00C01B4B144B0855
:100868000319442C4B0A031D412C0030C1000030F1
:10087800C0000030BF000030BE00C017C1014C2CC2
:100888000030C1000030C0000030BF000030BE00A2
:100898004C084B020318922C4A1F562C8030C20079
:1008A8004208CA064C08C2004208CD004B08C200E4
:1008B8004208CC004D08C2004208CB003A08C200EA
:1008C8004208CD003E08C2004208BA004D08C200E6
:1008D8004208BE003B08C2004208CD003F08C200E3
:1008E8004208BB004D08C2004208BF003C08C200D5
:1008F8004208CD004008C2004208BC004D08C200B2
:100908004208C0003D08C2004208CD004108C200AC
:100918004208BD004D08C2004208C100CD014B0885
:10092800C200C3014308C5004C084202C400031CAE
:10093800C5034508803AC60080304602031DA62C30
:100948001A304402031CDA2C20003D083C043B0406
:100958003A040319B12C0130B22C0030C20042080D
:10096800CD000030BD000030BC000030BB000030BE
:10097800BA004B08C2004208CC00DF2C4D1CCA2C20
:100988004D360138C2004208CD00CC2C0310CD0CE6
:100998003A18CD170130C200BD37BC0CBB0CBA0CDD
:1009A800C20BD02C0130C2004208CC0720004B08F3
:1009B8004C02031CC22C4A1B102D4C08031DED2CA5
:1009C8000030BD000030BC000030BB000030BA0071
:1009D80008003E08BA073F08BB3D4008BC3D410837
:1009E800BD3D3D1C8A2D4D1CFF2C4D360138C200E3
:1009F8004208CD00012D0310CD0C3A18CD17013057
:100A0800C200BD37BC0CBB0CBA0CC20B052D0130A3
:100A1800C2004208CC078A2D3D08803AC20041082E
:100A2800803A4202031D222D40083C02031D222D5C
:100A38003F083B02031D222D3E083A0203185A2D97
:100A4800FF30C200FF30C300FF30C400FF30C500D4
:100A58003A083E02C6003B083F3BC7003C08403B03
:100A6800C8003D08413BC9004608C2074708C33DC6
:100A78004808C43D4908C53D4508BD004408BC00B8
:100A88004308BB004208BA008030C2004208CA06C8
:100A9800CD09CD0A4D08031D622D0130BA0700307B
:100AA800BB3D0030BC3D0030BD3D622D3E08BA0262
:100AB8003F08BB3B4008BC3B4108BD3B3D083C04EC
:100AC8003B043A04031D882D4D08031D882D003072
:100AD800BD000030BC000030BB000030BA00080088
:100AE8000130BA35BB0DBC0DBD0D890B752DCD1B65
:100AF8003A144D1C812D0314822D0310CD0D4C0882
:100B08000319882D0130CC02BC1F742DCB01CD1FD9
:100B1800952D4D087F3903193A18932D952DCB0142
:100B2800CB0A4B080319C12D0130BA070030BB3D71
:100B38000030BC3D0030BD3D3D1CC12D3A08C2000F
:100B48003B08C3003C08C4003D08C5000130C6008E
:100B5800C537C40CC30CC20CC60BAC2D4508BD0070
:100B68004408BC004308BB004208BA004C0A0319F9
:100B7800C12D0130C2004208CC074C0A031D4C08A5
:100B8800031DD12D0030BD000030BC000030BB007B
:100B98000030BA004C080319CA014C1CD52DBC17EB
:100BA800D92D7F30C2004208BC054C36C20042082D
:100BB800BD00CA1F0800BD1708002000230880399F
:100BC800A8002808AD002335A8002808B300A21BF8
:100BD800331433080319FD2D330A031DFB2D003090
:100BE800A3000030A2000030A1000030A000A2172E
:100BF800052E0030A3000030A2000030A100003014
:100C0800A00027088039A8002808AD062735A800C5
:100C18002808B200A61B321432080319202E320A03
:100C2800031D1E2E0030A7000030A6000030A500CE
:100C38000030A400A617282E0030A7000030A60018
:100C48000030A5000030A4003208031D3308031D3E
:100C5800362E0030A3000030A2000030A100003082
:100C6800A00008002008A8002808F0002608332261
:100C780071082000B9007008B8003808A800A90158
:100C8800AA01AB012B08B1002A08B0002908AF005F
:100C98002808AE003908A800A901AA01AB012B0851
:100CA800B7002A08B6002908B5002808B4002108AA
:100CB800A8002808F0002508332271082000B90090
:100CC8007008B8003808A800A901AA01AB012808D3
:100CD800AE072908AF3D2A08B03D2B08B13D3908B9
:100CE800A800A901AA01AB012808B4072908B53D45
:100CF8002A08B63D2B08B73D2208A8002808F000AE
:100D08002408332271082000B9007008B800380898
:100D1800A800A901AA01AB012808AE072908AF3D20
:100D28002A08B03D2B08B13D3908A800A901AA013D
:100D3800AB012808B4072908B53D2A08B63D2B0899
:100D4800B73D0830AE35AF0DB00DB10D890BA62EED
:100D58002108A8002808F000240833227108200080
:100D6800B9007008B8003808AE073908AF3D003040
:100D7800B03DB13D2008A8002808F000250833221E
:100D880071082000B9007008B8003808AE073908A3
:100D9800AF3D0030B03DB13D0830AE35AF0DB00DC0
:100DA800B10D890BD12E2008A8002808F0002408CE
:100DB800332271082000B9007008B8003808AE075F
:100DC8003908AF3D0030B03DB13D2108A8002808E2
:100DD800F0002608332271082000B9007008B80016
:100DE8003808B4073908B53D0030B63DB73D22088C
:100DF800A8002808F0002508332271082000B9004F
:100E08007008B8003808B4073908B53D0030B63D59
:100E1800B73D2208A8002808F000260833227108E8
:100E28002000B9007008B8003808A8003908A900DF
:100E3800AA01AB010830A835A90DAA0DAB0D890B85
:100E48001F2F2808B4072908B53D2A08B63D2B08E6
:100E5800B73D2E08A8002F08A9003008AA003108BD
:100E6800AB001830AB36AA0CA90CA80C890B362F8E
:100E78002808B4072908B53D2A08B63D2B08B73D10
:100E88000830AE35AF0DB00DB10D890B452F3308C5
:100E98003207A800A901A90D2808823EB800FF3032
:100EA800293DB900B61B6D2F0130B435B50DB60D0F
:100EB800B70D890B592FB11B34140130AE35AF0D66
:100EC800B00DB10D890B622FFF30B807FF30B93D67
:100ED800562FB201B11F862FFF302E05A800FF3014
:100EE8002F05A900FF303005AA007F303105AB007F
:100EF8002B082A042904280403193418842F862F60
:100F0800B201B20A32080319AF2F0130B40700301A
:100F1800B53D0030B63D0030B73D371CAF2F340823
:100F2800A8003508A9003608AA003708AB00013028
:100F3800AC00AB37AA0CA90CA80CAC0B9D2F2B0846
:100F4800B7002A08B6002908B5002808B4000130FF
:100F5800B8070030B93D3908803AA8008030280227
:100F6800031DB82FFF303802031CC42F7F30200028
:100F7800B7008030B6000030B5000030B400EE2F66
:100F880020003908803AA80080302802031DCE2F9F
:100F9800013038020318DB2F00302000B700003082
:100FA800B6000030B5000030B400AD01EE2F2000CF
:100FB8003808A8002808B300FF30B405FF30B5058D
:100FC8007F30B6050030B7053318B6173336A8009A
:100FD8002808B7002D08A8002808B7043708A30078
:100FE8003608A2003508A1003408A0000800200037
:080FF800DF01E0012000ED29FA
:020000040001F9
:08000000FF3FFF3FFF3FFF3F00
:08000E00EC3FF33FFF3FFF3F11
:00000001FF
