:040000000128FB2FA9
:1003B0001630210097000800EA213022F221D821CE
:1003C000E221080080309E009F019B019C010130CA
:1003D0009D00080032009101920193019401950162
:1003E000960108006230320099009B019D010330A4
:1003F0009F009E01080013301A2271082000DC00C3
:100400007008DB005C08DA005B08D900A122080054
:10041000DC21E221D62204302000DE00CF30DD00D6
:100420000130890B112ADD0B112ADE0B112A003253
:10043000FB210B2AF3007308F200F20DF20D2100EC
:100440001D087206033972069D001D14000021006C
:100450009D149D18292A1C08F1001B08F0000800B3
:1004600022008C018E01173021008C001F308E007D
:100470000F3023008E0017308C0024008C018E0179
:1004800025008C018E01373026008C003F308E0015
:100490003F3027008C003F308E000800F800F40148
:1004A000F5017008F200F3017208F6007308F70016
:1004B000781C5E2A7608F4077708F53D0130F6359A
:1004C000F70D890B5F2A0310F80C7808031D582AD2
:1004D0007508F1007408F0000800F901FA017408C9
:1004E000750403199C2AFB01FB0AF51B812A0130C4
:1004F000F435F50D890B782A0130F8007808FB07F0
:10050000752A0130F935FA0D890B822A75087702B0
:10051000031D8C2A74087602031C932A7408F602C1
:100520007508F73B79140130F536F40C890B942AE1
:100530000130FB02031D812A7A08F5007908F400D6
:1005400008005908F0005A08F100F201F3010030E8
:100550007F237308A7007208A6007108A500700821
:10056000A400BD30A300CA30A200F430A100F130D5
:10057000A000F5252308C1002208C0002108BF0003
:100580002008BE004230BD009930BC009030BB0056
:100590006230BA0014243D08D1003C08D0003B086A
:1005A000CF003A08CE001A234E080800C830F400E5
:1005B0000030F50010301A227108F7007008F600BC
:1005C0006D2274082000A0002008A300C830F400A9
:1005D0000030F50011301A227108F7007008F6009B
:1005E0006D2274082000A0002008A400C830F40088
:1005F0000030F50012301A227108F7007008F6007A
:100600006D2274082000A0002008A5002408A00086
:100610000330A035890B092B2308A1000530A13533
:10062000FF3E031D0F2B213520042504A2002208C4
:10063000E10008000310500D510DD2005208D800FF
:100640005808031D2C2B0030D1000030D0000030A2
:10065000CF000030CE0008004E08D2004F08D30073
:100660005008D4005108D5001F30D536D40CD30C17
:10067000D20C890B352B5208D6005608D700D0175C
:10068000FF30CE05FF30CF05FF30D0050030D1055B
:100690009630D802D81F5F2B5808803A973E031C2B
:1006A000232B0130D136D00CCF0CCE0C890B522B22
:1006B0000130D2005208D8070319702B512B20307B
:1006C00058020318232B58080319702B0130CE351C
:1006D000CF0DD00DD10D890B672B0130D802632BC4
:1006E000570803190800CE09CF09D009D109CE0A4D
:1006F0000319CF0A0319D00A0319D10A0800F80018
:100700007808031DF31F942B7009FA007109FB0090
:100710007209FC007309FD00FA0A0319FB0A0319A8
:10072000FC0A0319FD0A9C2B7308FD007208FC00EB
:100730007108FB007008FA007308720471047004F9
:10074000031DAB2B0030F3000030F2000030F1004D
:100750000030F00008009630F4007408F900FE3014
:100760007D050319D22B0130F4007408F90701301C
:10077000FD36FC0CFB0CFA0C890BB82BAF2B0130AF
:10078000F4007408F9070130FA070030FB3D00302F
:10079000FC3D0030FD3D0130FD36FC0CFB0CFA0C3D
:1007A000890BCC2BFF307D050319E42BBF2B0230C6
:1007B0007902031CE62B0130F9020130FA35FB0DFA
:1007C000FC0DFD0D890BDE2BFC1FD72B7918F02BB0
:1007D000FF30FA05FF30FB057F30FC05FF30FD05DB
:1007E0000310F90C7908F400F501F601F70118304F
:1007F000F435F50DF60DF70D890BF82B7408FA0496
:100800007508FB047608FC047708FD047808031DCE
:10081000F31F0B2CFD177D08F3007C08F2007B080A
:10082000F1007A08F00008003D088039C200420853
:10083000CA003D35C2004208CC00BC1B4C144C0819
:100840000319302C4C0A031D2D2C0030BD00003044
:10085000BC000030BB000030BA00BC17BD01382C12
:100860000030BD000030BC000030BB000030BA00DA
:1008700041088039C2004208CB004B084A06031DDC
:100880004A174135C2004208CB00C01B4B144B082D
:100890000319582C4B0A031D552C0030C1000030A1
:1008A000C0000030BF000030BE00C017C101602C86
:1008B0000030C1000030C0000030BF000030BE007A
:1008C0004C084B020318A62C4A1F6A2C8030C20029
:1008D0004208CA064C08C2004208CD004B08C200BC
:1008E0004208CC004D08C2004208CB003A08C200C2
:1008F0004208CD003E08C2004208BA004D08C200BE
:100900004208BE003B08C2004208CD003F08C200BA
:100910004208BB004D08C2004208BF003C08C200AC
:100920004208CD004008C2004208BC004D08C20089
:100930004208C0003D08C2004208CD004108C20084
:100940004208BD004D08C2004208C100CD014B085D
:10095000C200C3014308C5004C084202C400031C86
:10096000C5034508803AC60080304602031DBA2CF4
:100970001A304402031CEE2C20003D083C043B04CA
:100980003A040319C52C0130C62C0030C2004208BD
:10099000CD000030BD000030BC000030BB00003096
:1009A000BA004B08C2004208CC00F32C4D1CDE2CD0
:1009B0004D360138C2004208CD00E02C0310CD0CAA
:1009C0003A18CD170130C200BD37BC0CBB0CBA0CB5
:1009D000C20BE42C0130C2004208CC0720004B08B7
:1009E0004C02031CD62C4A1B242D4C08031D012D40
:1009F0000030BD000030BC000030BB000030BA0049
:100A000008003E08BA073F08BB3D4008BC3D41080E
:100A1000BD3D3D1C9E2D4D1C132D4D360138C20091
:100A20004208CD00152D0310CD0C3A18CD1701301A
:100A3000C200BD37BC0CBB0CBA0CC20B192D013067
:100A4000C2004208CC079E2D3D08803AC2004108F2
:100A5000803A4202031D362D40083C02031D362D0C
:100A60003F083B02031D362D3E083A0203186E2D47
:100A7000FF30C200FF30C300FF30C400FF30C500AC
:100A80003A083E02C6003B083F3BC7003C08403BDB
:100A9000C8003D08413BC9004608C2074708C33D9E
:100AA0004808C43D4908C53D4508BD004408BC0090
:100AB0004308BB004208BA008030C2004208CA06A0
:100AC000CD09CD0A4D08031D762D0130BA0700303F
:100AD000BB3D0030BC3D0030BD3D762D3E08BA0226
:100AE0003F08BB3B4008BC3B4108BD3B3D083C04C4
:100AF0003B043A04031D9C2D4D08031D9C2D003022
:100B0000BD000030BC000030BB000030BA0008005F
:100B10000130BA35BB0DBC0DBD0D890B892DCD1B28
:100B20003A144D1C952D0314962D0310CD0D4C0831
:100B300003199C2D0130CC02BC1F882DCB01CD1F89
:100B4000A92D4D087F3903193A18A72DA92DCB01DE
:100B5000CB0A4B080319D52D0130BA070030BB3D35
:100B60000030BC3D0030BD3D3D1CD52D3A08C200D3
:100B70003B08C3003C08C4003D08C5000130C60066
:100B8000C537C40CC30CC20CC60BC02D4508BD0034
:100B90004408BC004308BB004208BA004C0A0319D1
:100BA000D52D0130C2004208CC074C0A031D4C0869
:100BB000031DE52D0030BD000030BC000030BB003F
:100BC0000030BA004C080319CA014C1CE92DBC17AF
:100BD000ED2D7F30C2004208BC054C36C2004208F1
:100BE000BD00CA1F0800BD17080023088039A800EF
:100BF0002808AD002335A8002808B300A21B331431
:100C000033080319102E330A031D0E2E0030A300E3
:100C10000030A2000030A1000030A000A217182E62
:100C20000030A3000030A2000030A1000030A0007E
:100C300027088039A8002808AD062735A80028080D
:100C4000AE00A61B2E142E080319332E2E0A031DE8
:100C5000312E0030A7000030A6000030A500003083
:100C6000A400A6173B2E0030A7000030A6000030DD
:100C7000A5000030A4002E08031D3308031D492ED3
:100C80000030A3000030A2000030A1000030A0001E
:100C900008002008A8002808F00026084E22710845
:100CA000B9007008B8003808A800A901AA01AB0172
:100CB0002B08B2002A08B1002908B0002808AF00AC
:100CC0003908A800A901AA01AB012B08B7002A081E
:100CD000B6002908B5002808B4002108A800280893
:100CE000F00025084E227108B9007008B8003808D5
:100CF000A800A901AA01AB012808AF072908B03D47
:100D00002A08B13D2B08B23D3908A800A901AA0163
:100D1000AB012808B4072908B53D2A08B63D2B08C1
:100D2000B73D2208A8002808F00024084E227108C8
:100D3000B9007008B8003808A800A901AA01AB01E1
:100D40002808AF072908B03D2A08B13D2B08B23D5D
:100D50003908A800A901AA01AB012808B40729088D
:100D6000B53D2A08B63D2B08B73D0830AF35B00D6C
:100D7000B10DB20D890BB62E2108A8002808F0008D
:100D800024084E227108B9007008B8003808AF076F
:100D90003908B03D0030B13DB23D2008A800280818
:100DA000F00025084E227108B9007008B800380814
:100DB000AF073908B03D0030B13DB23D0830AF3526
:100DC000B00DB10DB20D890BDF2E2008A800280848
:100DD000F00024084E227108B9007008B8003808E5
:100DE000AF073908B03D0030B13DB23D2108A80041
:100DF0002808F00026084E227108B9007008B800D3
:100E00003808B4073908B53D0030B63DB73D220873
:100E1000A8002808F00025084E227108B9007008C3
:100E2000B8003808B4073908B53D0030B63DB73DC5
:100E30002208A8002808F00026084E227108B900F0
:100E40007008B8003808A8003908A900AA01AB0149
:100E50000830A835A90DAA0DAB0D890B292F28083C
:100E6000B4072908B53D2A08B63D2B08B73D32081E
:100E7000A800A901AA01AB012808B4072908B53DBB
:100E80002A08B63D2B08B73D0830AF35B00DB10D7F
:100E9000B20D890B452F33082E07A800A901A90D13
:100EA0002808823EB800FF30293DB900B61B6D2FDF
:100EB0000130B435B50DB60DB70D890B592FB21BE6
:100EC00034140130AF35B00DB10DB20D890B622F66
:100ED000FF30B807FF30B93D562FAE01B21F862F45
:100EE000FF302F05A800FF303005A900FF30310585
:100EF000AA007F303205AB002B082A0429042804FD
:100F000003193418842F862FAE01AE0A2E08031958
:100F1000AF2F0130B4070030B53D0030B63D003092
:100F2000B73D371CAF2F3408A8003508A900360894
:100F3000AA003708AB000130AC00AB37AA0CA90CF3
:100F4000A80CAC0B9D2F2B08B7002A08B600290867
:100F5000B5002808B4000130B8070030B93D3908A1
:100F6000803AA80080302802031DB82FFF303802D5
:100F7000031CC42F7F302000B7008030B600003043
:100F8000B5000030B400EE2F20003908803AA800E8
:100F900080302802031DCE2F013038020318DB2FCA
:100FA00000302000B7000030B6000030B50000303F
:100FB000B400AD01EE2F20003808A8002808B300C7
:100FC000FF30B405FF30B5057F30B6050030B705FA
:100FD0003318B6173336A8002808B7002D08A80024
:100FE0002808B7043708A3003608A2003508A10076
:100FF0003408A00008002000DF01E0012000082ADA
:020000040001F9
:08000000FF3FFF3FFF3FFF3F00
:08000E00EC3FF33FFF3FFF3F11
:00000001FF
